:03800000028100FA
:039F42000282B8E0
:10810000758921D2AFD2A9D28C1282A81282A8126C
:1081100082A81282A890F8A1858341858242D28CE0
:108120001282A81282A81282A81282A8C28C12827D
:10813000A890F8A1858341858242D28C1282A81230
:1081400082A81282A81282A8C28C1282A890FB2157
:10815000858341858242D28C1282A81282A8128223
:10816000A81282A8C28C1282A890FB218583418527
:108170008242D28C1282A81282A81282A81282A8ED
:10818000C28C1282A890FBAC858341858242D28C3E
:108190001282A81282A81282A81282A8C28C12820D
:1081A000A890FBAC858341858242D28C1282A812B2
:1081B00082A81282A81282A8C28C1282A890FB21E7
:1081C000858341858242D28C1282A81282A81282B3
:1081D000A81282A8C28C1282A81282A81282A812A7
:1081E00082A890FA84858341858242D28C1282A82B
:1081F0001282A81282A81282A8C28C1282A890FAB7
:1082000084858341858242D28C1282A81282A81270
:1082100082A81282A8C28C1282A890FA2D8583416E
:10822000858242D28C1282A81282A81282A812825F
:10823000A8C28C1282A890FA2D858341858242D2F1
:108240008C1282A81282A81282A81282A8C28C1252
:1082500082A890F978858341858242D28C1282A8C7
:108260001282A81282A81282A8C28C1282A890F947
:1082700078858341858242D28C1282A81282A8120C
:1082800082A81282A8C28C1282A890F8A18583418C
:10829000858242D28C1282A81282A81282A81282EF
:1082A000A8C28C1282A82109790175F0707470D56A
:1082B000E0FDD5F0FAD9F822C28CC0E0C083C082BC
:1082C00085418C85428AD28CE540F4F540F590904A
:0A82D000E000F0D082D082D0E0324E
:00000001FF
